:020000040800F2
:1000000000C00020ED6200080D5700080F570008DF
:10001000115700081357000815570008000000008A
:10002000000000000000000000000000175700085A
:1000300019570008000000001B5700081D57000852
:100040003563000835630008356300083563000830
:100050003563000835630008356300083563000820
:100060003563000835630008356300083563000810
:100070003563000835630008356300083563000800
:1000800035630008356300083563000835630008F0
:1000900035630008356300083563000835630008E0
:1000A00035630008356300083563000835630008D0
:1000B00035630008356300083563000835630008C0
:1000C00035630008356300083563000835630008B0
:1000D00035630008356300082157000835630008C0
:1000E0003563000835630008356300083563000890
:1000F0003563000835630008356300083563000880
:10010000356300083563000835630008356300086F
:10011000356300083563000835630008356300085F
:10012000356300083563000835630008356300084F
:1001300000000000000000000000000000000000BF
:1001400000000000000000000000000000000000AF
:10015000000000000000000000000000000000009F
:10016000000000000000000000000000000000008F
:10017000000000000000000000000000000000007F
:10018000000000000000000000000000000000006F
:10019000000000000000000000000000000000005F
:1001A000000000000000000000000000000000004F
:1001B000000000000000000000000000000000003F
:1001C000000000000000000000000000000000002F
:1001D000000000000000000000000000000000001F
:0401E0005FF8E0F1F3
:1001E80010B5054C237833B9044B13B10448AFF369
:1001F80000800123237010BDA4000020000000002F
:100208002482000808B5034B1BB103490348AFF328
:10021800008008BD00000000A8000020248200081B
:1002280010F8012B11F8013B012A28BF9A42F7D098
:10023800D01A704781F0004102E000BF83F000430C
:1002480030B54FEA41044FEA430594EA050F08BF69
:1002580090EA020F1FBF54EA000C55EA020C7FEA2D
:10026800645C7FEA655C00F0E2804FEA5454D4EBAA
:100278005555B8BF6D420CDD2C4480EA020281EA74
:10028800030382EA000083EA010180EA020281EAAC
:100298000303362D88BF30BD11F0004F4FEA0131FE
:1002A8004FF4801C4CEA113102D0404261EB41010D
:1002B80013F0004F4FEA03334CEA133302D0524293
:1002C80063EB430394EA050F00F0A780A4F101044F
:1002D800D5F1200E0DDB02FA0EFC22FA05F2801889
:1002E80041F1000103FA0EF2801843FA05F359416F
:1002F8000EE0A5F120050EF1200E012A03FA0EFCEE
:1003080028BF4CF0020C43FA05F3C01851EBE37117
:1003180001F0004507D54FF0000EDCF1000C7EEB34
:1003280000006EEB0101B1F5801F1BD3B1F5001F72
:100338000CD349085FEA30004FEA3C0C04F1010491
:100348004FEA445212F5800F80F09A80BCF1004FBA
:1003580008BF5FEA500C50F1000041EB045141EA3C
:10036800050130BD5FEA4C0C404141EB0101013C05
:1003780028BFB1F5801FE9D291F0000F04BF0146F4
:100388000020B1FA81F308BF2033A3F10B03B3F1C6
:1003980020020CDA0C3208DD02F1140CC2F10C0256
:1003A80001FA0CF021FA02F10CE002F11402D8BFB4
:1003B800C2F1200C01FA02F120FA0CFCDCBF41EA80
:1003C8000C019040E41AA2BF01EB0451294330BD4F
:1003D8006FEA04041F3C1CDA0C340EDC04F114042C
:1003E800C4F1200220FA04F001FA02F340EA030003
:1003F80021FA04F345EA030130BDC4F10C04C4F149
:10040800200220FA02F001FA04F340EA0300294628
:1004180030BD21FA04F0294630BD94F0000F83F472
:10042800801306BF81F480110134013D4EE77FEA55
:10043800645C18BF7FEA655C29D094EA050F08BFA1
:1004480090EA020F05D054EA000C04BF1946104682
:1004580030BD91EA030F1EBF0021002030BD5FEAC6
:10046800545C05D14000494128BF41F0004130BDEE
:1004780014F580043CBF01F5801130BD01F0004542
:1004880045F0FE4141F470014FF0000030BD7FEAB5
:10049800645C1ABF194610467FEA655C1CBF0B46B0
:1004A800024650EA013406BF52EA033591EA030FC7
:1004B80041F4002130BD00BF90F0000F04BF0021BF
:1004C800704730B54FF4806404F132044FF00005F2
:1004D8004FF0000150E700BF90F0000F04BF00216B
:1004E800704730B54FF4806404F1320410F00045D1
:1004F80048BF40424FF000013EE700BF42004FEACC
:10050800E2014FEA31014FEA02701FBF12F07F4348
:1005180093F07F4F81F06051704732F07F4208BFFF
:10052800704793F07F4F04BF41F40021704730B506
:100538004FF4607401F0004521F000411CE700BF52
:1005480050EA010208BF704730B54FF000050AE0D5
:1005580050EA010208BF704730B511F0004502D5D6
:10056800404261EB41014FF4806404F132045FEAD8
:10057800915C3FF4D8AE4FF003025FEADC0C18BF81
:1005880003325FEADC0C18BF033202EBDC02C2F173
:10059800200300FA03FC20FA02F001FA03FE40EA05
:1005A8000E0021FA02F11444BDE600BF70B54FF009
:1005B800FF0C4CF4E06C1CEA11541DBF1CEA1355E7
:1005C80094EA0C0F95EA0C0F00F0DEF82C4481EA4F
:1005D800030621EA4C5123EA4C5350EA013518BF6F
:1005E80052EA033541F4801143F4801338D0A0FB5C
:1005F80002CE4FF00005E1FB02E506F00042E0FB09
:1006080003E54FF00006E1FB03569CF0000F18BF0E
:100618004EF0010EA4F1FF04B6F5007F64F54074B6
:1006280004D25FEA4E0E6D4146EB060642EAC62149
:1006380041EA55514FEAC52040EA5E504FEACE2EB6
:10064800B4F1FD0C88BFBCF5E06F1ED8BEF1004FB9
:1006580008BF5FEA500E50F1000041EB045170BD35
:1006680006F0004646EA010140EA020081EA030179
:10067800B4EB5C04C2BFD4EB0C0541EA045170BD75
:1006880041F480114FF0000E013C00F3AB8014F1EF
:10069800360FDEBF002001F0004170BDC4F1000438
:1006A800203C35DA0C341BDC04F11404C4F12005B9
:1006B80000FA05F320FA04F001FA05F240EA020014
:1006C80001F0004221F0004110EBD37021FA04F64A
:1006D80042EB06015EEA430E08BF20EAD37070BD04
:1006E800C4F10C04C4F1200500FA04F320FA05F063
:1006F80001FA04F240EA020001F0004110EBD37065
:1007080041F100015EEA430E08BF20EAD37070BDD4
:10071800C4F1200500FA05F24EEA020E20FA04F3AD
:1007280001FA05F243EA020321FA04F001F000415C
:1007380021FA04F220EA020000EBD3705EEA430ECD
:1007480008BF20EAD37070BD94F0000F0FD101F0FC
:100758000046400041EB010111F4801F08BF013C35
:10076800F7D041EA060195F0000F18BF704703F073
:100778000046520043EB030313F4801F08BF013DFA
:10078800F7D043EA0603704794EA0C0F0CEA1355B6
:1007980018BF95EA0C0F0CD050EA410618BF52EA70
:1007A8004306D1D181EA030101F000414FF0000076
:1007B80070BD50EA410606BF1046194652EA430684
:1007C80019D094EA0C0F02D150EA013613D195EAF8
:1007D8000C0F05D152EA03361CBF104619460AD140
:1007E80081EA030101F0004141F0FE4141F470014A
:1007F8004FF0000070BD41F0FE4141F4780170BD3A
:1008080070B54FF0FF0C4CF4E06C1CEA11541DBF9E
:100818001CEA135594EA0C0F95EA0C0F00F0A7F8A0
:10082800A4EB050481EA030E52EA03354FEA0131CD
:1008380000F088804FEA03334FF0805545EA1313E0
:1008480043EA12634FEA022245EA111545EA1065A8
:100858004FEA00260EF000419D4208BF964244F13F
:10086800FD0404F5407402D25B084FEA3202B61A5E
:1008780065EB03055B084FEA32024FF480104FF432
:10088800002CB6EB020E75EB030E22BFB61A7546A6
:1008980040EA0C005B084FEA3202B6EB020E75EB39
:1008A800030E22BFB61A754640EA5C005B084FEAA1
:1008B8003202B6EB020E75EB030E22BFB61A75466E
:1008C80040EA9C005B084FEA3202B6EB020E75EB79
:1008D800030E22BFB61A754640EADC0055EA060E3A
:1008E80018D04FEA051545EA16754FEA06164FEA7D
:1008F800C30343EA52734FEAC2025FEA1C1CC0D129
:1009080011F4801F0BD141EA00014FF000004FF0B5
:10091800004CB6E711F4801F04BF01430020B4F176
:10092800FD0C88BFBCF5E06F3FF6AFAEB5EB030C2E
:1009380004BFB6EB020C5FEA500C50F1000041EB2B
:10094800045170BD0EF0004E4EEA113114EB5C04F8
:10095800C2BFD4EB0C0541EA045170BD41F48011CB
:100968004FF0000E013C90E645EA060E8DE60CEAD3
:10097800135594EA0C0F08BF95EA0C0F3FF43BAFF0
:1009880094EA0C0F0AD150EA01347FF434AF95EAA7
:100998000C0F7FF425AF104619462CE795EA0C0F8B
:1009A80006D152EA03353FF4FDAE1046194622E758
:1009B80050EA410618BF52EA43067FF4C5AE50EA32
:1009C80041047FF40DAF52EA43057FF4EBAE12E722
:1009D8004FF0FF3C06E000BF4FF0010C02E000BF03
:1009E8004FF0010C4DF804CD4FEA410C7FEA6C5CE6
:1009F8004FEA430C18BF7FEA6C5C1BD001B050EA89
:100A0800410C0CBF52EA430C91EA030F02BF90EA73
:100A1800020F0020704710F1000F91EA030F58BF32
:100A2800994208BF90422CBFD8176FEAE37040F094
:100A3800010070474FEA410C7FEA6C5C02D150EA32
:100A4800013C07D14FEA430C7FEA6C5CD6D152EAED
:100A5800033CD3D05DF8040B704700BF84461046B2
:100A680062468C461946634600E000BF01B5FFF7B1
:100A7800B7FF002848BF10F1000F01BD4DF808ED81
:100A8800FFF7F4FF0CBF012000205DF808FB00BF52
:100A98004DF808EDFFF7EAFF34BF012000205DF8AC
:100AA80008FB00BF4DF808EDFFF7E0FF94BF0120F9
:100AB80000205DF808FB00BF4DF808EDFFF7CEFFFA
:100AC80094BF012000205DF808FB00BF4DF808ED39
:100AD800FFF7C4FF34BF012000205DF808FB00BF0A
:100AE8004FEA410C7FEA6C5C02D150EA013C0AD122
:100AF8004FEA430C7FEA6C5C02D152EA033C02D114
:100B08004FF0000070474FF0010070474A0011D2C3
:100B180012F5001211D20DD56FF47873B3EB62524F
:100B28000ED44FEAC12343F0004343EA505323FA5B
:100B380002F070474FF00000704750EA013002D1D0
:100B48004FF0FF3070474FF00000704780F00040D2
:100B580002E000BF81F0004142001FBF5FEA41038D
:100B680092EA030F7FEA226C7FEA236C6AD04FEA8D
:100B78001262D2EB1363C1BFD218414048404140D2
:100B8800B8BF5B42192B88BF704710F0004F40F484
:100B9800000020F07F4018BF404211F0004F41F4A0
:100BA800000121F07F4118BF494292EA030F3FD06C
:100BB800A2F1010241FA03FC10EB0C00C3F120037F
:100BC80001FA03F100F0004302D5494260EB40000E
:100BD800B0F5000F13D3B0F1807F06D340084FEA79
:100BE800310102F10102FE2A51D2B1F1004F40EB6E
:100BF800C25008BF20F0010040EA030070474900D6
:100C080040EB0000013A28BFB0F5000FEDD2B0FA72
:100C180080FCACF1080CB2EB0C0200FA0CF0AABF95
:100C280000EBC25052421843BCBFD0401843704733
:100C380092F0000F81F4000106BF80F40000013239
:100C4800013BB5E74FEA41037FEA226C18BF7FEA10
:100C5800236C21D092EA030F04D092F0000F08BF52
:100C68000846704790EA010F1CBF0020704712F039
:100C78007F4F04D1400028BF40F00040704712F178
:100C880000723CBF00F50000704700F0004343F0DD
:100C9800FE4040F4000070477FEA226216BF084613
:100CA8007FEA23630146420206BF5FEA412390EAD6
:100CB800010F40F4800070474FF0000304E000BFCC
:100CC80010F0004348BF40425FEA000C08BF70477D
:100CD80043F0964301464FF000001CE050EA010241
:100CE80008BF70474FF000030AE000BF50EA010256
:100CF80008BF704711F0004302D5404261EB410143
:100D08005FEA010C02BF84460146002043F0B64367
:100D180008BFA3F18053A3F50003BCFA8CF2083A8C
:100D2800A3EBC25310DB01FA02FC634400FA02FC95
:100D3800C2F12002BCF1004F20FA02F243EB02009C
:100D480008BF20F00100704702F1200201FA02FCFE
:100D5800C2F1200250EA4C0021FA02F243EB0200F1
:100D680008BF20EADC7070474FF0FF0C1CEAD05235
:100D78001EBF1CEAD15392EA0C0F93EA0C0F6FD0F6
:100D88001A4480EA010C400218BF5FEA41211ED0D4
:100D98004FF0006343EA501043EA5111A0FB0131C0
:100DA8000CF00040B1F5000F3EBF490041EAD37195
:100DB8005B0040EA010062F17F02FD2A1DD8B3F111
:100DC800004F40EBC25008BF20F00100704790F080
:100DD800000F0CF0004C08BF49024CEA502040EAD2
:100DE80051207F3AC2BFD2F1FF0340EAC250704798
:100DF80040F400004FF00003013A5DDC12F1190FD6
:100E0800DCBF00F000407047C2F10002410021FA47
:100E180002F1C2F1200200FA02FC5FEA310040F15F
:100E2800000053EA4C0308BF20EADC70704792F0D8
:100E3800000F00F0004C02BF400010F4000F013A10
:100E4800F9D040EA0C0093F0000F01F0004C02BF0B
:100E5800490011F4000F013BF9D041EA0C018FE77A
:100E68000CEAD15392EA0C0F18BF93EA0C0F0AD080
:100E780030F0004C18BF31F0004CD8D180EA0100A6
:100E880000F00040704790F0000F17BF90F0004F3F
:100E9800084691F0000F91F0004F14D092EA0C0F21
:100EA80001D142020FD193EA0C0F03D14B0218BFB4
:100EB800084608D180EA010000F0004040F0FE40FA
:100EC80040F40000704740F0FE4040F44000704796
:100ED8004FF0FF0C1CEAD0521EBF1CEAD15392EA15
:100EE8000C0F93EA0C0F69D0A2EB030280EA010C05
:100EF80049024FEA402037D04FF0805343EA11119E
:100F080043EA10130CF000408B4238BF5B0042F1FB
:100F18007D024FF4000C8B4224BF5B1A40EA0C00A0
:100F2800B3EB510F24BFA3EB510340EA5C00B3EBD2
:100F3800910F24BFA3EB910340EA9C00B3EBD10FC0
:100F480024BFA3EBD10340EADC001B0118BF5FEA12
:100F58001C1CE0D1FD2A3FF650AF8B4240EBC2503B
:100F680008BF20F0010070470CF0004C4CEA5020FC
:100F78007F32C2BFD2F1FF0340EAC250704740F44B
:100F880000004FF00003013A37E792F0000F00F03D
:100F9800004C02BF400010F4000F013AF9D040EABB
:100FA8000C0093F0000F01F0004C02BF490011F44F
:100FB800000F013BF9D041EA0C0195E70CEAD15347
:100FC80092EA0C0F08D142027FF47DAF93EA0C0F2E
:100FD8007FF470AF084676E793EA0C0F04D14B0212
:100FE8003FF44CAF08466EE730F0004C18BF31F0C4
:100FF800004CCAD130F000427FF45CAF31F00043BE
:101008007FF43CAF5FE700BF4FEA4002B2F1FE4F0A
:101018000FD34FF09E03B3EB12620DD94FEA0023B2
:1010280043F0004310F0004F23FA02F018BF40428B
:1010380070474FF00000704712F1610F01D1420272
:1010480005D110F0004008BF6FF0004070474FF026
:101058000000704742000ED2B2F1FE4F0BD34FF0A2
:101068009E03B3EB126209D44FEA002343F0004316
:1010780023FA02F070474FF00000704712F1610F39
:1010880001D1420202D14FF0FF3070474FF000000B
:10109800704700BF03F020BF10B5044603F042FFBD
:1010A800230A5B00603B03F0FE0003F0E7FF03F058
:1010B8007BFFE0B203F0E2FF03F076FF03F032FFBC
:1010C800A12003F0DBFF03F06FFF002004F004F819
:1010D800044603F047FF204610BD38B504460D46C8
:1010E80003F020FF230A5B00603B03F0FE0003F0DF
:1010F800C5FF03F059FFE0B203F0C0FF03F054FF4F
:10110800284603F0BBFF03F04FFF03F02BFFBDE8B9
:1011180038400A2000F070B970B50D468418A4B2A2
:10112800A04200D170BD461CFFF7B6FFB6B205F865
:10113800010B3046F4E770B504460E468518ADB28B
:10114800AC4200D170BD204616F8011B0134FFF7F0
:10115800C4FFA4B2F4E7052000F034B910B50E4B73
:1011680086B09A69012442F010029A619B690B4883
:1011780003F010030193019B0923CDE902340323F3
:1011880002A90593049405F015FA054BC3F88041AC
:10119800C3F88C4106B010BD001002400010014099
:1011A8000000224238B50D4B00251A680C4C22F479
:1011B80070421A601A681E2042F440521A600123D5
:1011C800C4F88C31C4F8803100F0FCF8C4F88C51B4
:1011D800FFF7C1FFC4F8805138BD00BF00100140BF
:1011E8000000224238B501250B4B0C4C1A681E2012
:1011F80022F470421A601A6842F440521A60C4F825
:10120800805100F0DFF80023C4F88C31FFF7A3FF0A
:10121800C4F88C5138BD00BF0010014000002242C4
:1012280038B5114B114D1A68FB2422F470421A602C
:101238001A6842F400421A600123C5F88C31C5F8D7
:101248008031FFF788FFD5F80C0110B9C5F8800187
:1012580006E0013C14F0FF0403D1FFF7C3FF0120AF
:1012680038BDFFF778FFEEE700100140000022428A
:1012780038B500250C4C0D4BC4F880511A6822F47F
:1012880070421A601A6842F440521A60FFF763FF0E
:10129800C4F88C51FFF75FFF0123C4F88031FFF7D2
:1012A8005AFFC4F8805138BD0000224200100140A6
:1012B80070B5002501260C4C0C4BC4F880511A68F7
:1012C80022F470421A601A6842F440521A60FFF71A
:1012D80042FFC4F88C61FFF73EFFC4F88061FFF756
:1012E8003AFFC4F8805170BD00002242001001404E
:1012F8002DE9F0410027124B124E1A68044622F4D9
:1013080070421A601A68082542F440521A60C6F8FA
:101318008071FFF720FF4FF00108E309C6F88C3110
:10132800C6F88081FFF717FF013DC6F88071FFF707
:1013380012FF640015F0FF05E4B2EED1BDE8F081BC
:1013480000100140000022422DE9F8430024164B0A
:1013580006461A681E2022F470421A601A68082588
:1013680042F400421A6000F02DF8A1464FF001083F
:101378000E4FC7F88091FFF7EEFEC7F88081D7F8C7
:101388000C316400E4B20BB10134E4B2013D15F054
:10139800FF05EED126B9FFF78BFF2046BDE8F8839D
:1013A800FFF766FFF9E700BF001001400000224286
:1013B80010B50446042005F067F8014B1C6010BD09
:1013C800C00000200B4B70B51B684FF0E024584359
:1013D80000236569A169A2699142FCD095BFAE1A44
:1013E8005B189B199B1A98BF5B18834200D370BD8A
:1013F8001146F0E7C000002038B505460024A54294
:1014080000D838BD4FF47A70FFF7DCFF0134F6E7F7
:1014180070B505460C461646FFF7C4FE7020FFF768
:1014280067FFFFF7FDFEE8B2FFF762FFFFF7F8FE80
:101438002644B44201D1002508E014F8010BFFF757
:1014480057FFFFF7EDFE05460028F2D0FFF7CAFE6A
:10145800284670BDF8B5044615460E46FFF7A2FEAD
:101468007020FFF745FFFFF7DBFEE0B2FFF740FF14
:10147800FFF7D6FEFFF796FE7120FFF739FF00242D
:10148800FFF7CEFE6F1EAC4203D1BDE8F840FFF770
:10149800A9BE381B18BF0120FFF756FF305501348D
:1014A800F1E70000F0B52F4B87B09A69012442F0AC
:1014B80010029A619B69002503F010030193019BB8
:1014C8004FF40053CDE90234032302262648274F60
:1014D80002A90593049405F06DF802A92248CDE904
:1014E800026505F067F8FFF739FE1420C7F8B45114
:1014F800FFF782FF3220C7F8B441FFF77DFF22468D
:10150800694628468DF80050FFF782FF2246694653
:10151800A420FFF77DFF16232246694680208DF818
:101528000030FFF775FF0C232246694688208DF8A6
:101538000030FFF76DFF32466946A120FFF78AFFAA
:101548009DF80030302B0BD19DF80130032B07D1CB
:1015580043F20301064805F0EDFE284607B0F0BD4A
:101568002046FBE700100240001001400000224224
:10157800408200082DE9FF410A21484E8DF80700F6
:1015880033780133DBB2B3FBF1F201FB1232D2B292
:10159800337002B3092B1ED900209DF80730DB06F3
:1015A80011D13F4B93F9201093F820200029A9BFAF
:1015B8004FF6FF7102F07F0222F01F029981A8BF47
:1015C800D98283F820203378F02B84BF0A23337024
:1015D80004B0BDE8F081012202200DF10701FFF7F8
:1015E80039FF9DF8072002F00F02531E042BD3D8B1
:1015F800FF239340DB430027294D63F03F03DFF8C7
:10160800A48085F8203005F10C0495F820303B4182
:10161800DA0724D5042238F8170003A9FFF71AFFC0
:1016280095F830309DF80C1013F0010F9DF80D203F
:101638009DF80E309DF80F0021D04FEA012C0CF4D4
:10164800706C624462811A0202F470620244228061
:1016580001F0F003802B1EBF002363812380013734
:10166800052F04F10204D0D1AB89EA8A13439BB257
:101678000BB98DF807300023012033708DE74FEA4E
:10168800012C1B02C2F5F0720CF4706C03F4706349
:10169800A2EB0C02184422806081D9E7C400002024
:1016A8000C000020C683000870B505460C46164697
:1016B800FFF778FD2820FFF71BFEFFF7B1FD280A8A
:1016C800FFF716FEFFF7ACFDE8B2FFF711FEFFF7D4
:1016D800A7FD2644B44201D1002508E014F8010B07
:1016E800FFF706FEFFF79CFD05460028F2D0FFF73E
:1016F80079FD284670BD000013B50023B8240E4AB2
:101708008DF8050012F8011B013C0B4414F0FF048E
:10171800DBB2F7D15B42B822074948F247008DF89F
:101728000430FFF7C1FF022201A948F2FF00FFF7CA
:10173800BBFF204602B010BDDA830008F8B50446A6
:1017480015460E46FFF72EFD2820FFF7D1FDFFF7BF
:1017580067FD200AFFF7CCFDFFF762FDE0B2FFF757
:10176800C7FDFFF75DFDFFF71DFD2920FFF7C0FD51
:101778000024FFF755FD6F1EAC4203D1BDE8F840C9
:10178800FFF730BD381B18BF0120FFF7DDFD3055CE
:101798000134F1E7F0B5374B89B09A69012442F07A
:1017A80010029A619B69002603F010030193019BC4
:1017B8004FF40053CDE90434032302252E482F4F5C
:1017C80004A90793069404F0F5FE04A92A48CDE974
:1017D800045604F0EFFEFFF7C1FC0A20C7F8B46115
:1017E800FFF70AFE0A20C7F8B441FFF705FE04A96F
:1017F8002148CDE90565049504F0DCFE6420FFF777
:10180800FBFD042248F2401002A9FFF797FF02A946
:101818001B488DF80C6005F08DFD1A4902A8FEF7EB
:10182800FFFC18BB224602A948F240008DF8085078
:10183800FFF73AFF02A9224648F24700FFF77EFF6A
:101848009DF808105F2905D80F4805F073FD20465C
:10185800FFF752FF0A20FFF7CFFD0023012248F2CD
:10186800400002A98DF80830FFF71EFF002009B0DC
:10187800F0BD00BF001002400010014000002242ED
:101888004C820008588200085D8200082DE9FF4755
:101898000A21554D8DF807002B780133DBB2B3FBD5
:1018A800F1F201FB1232D2B22B708AB1092B0FD997
:1018B80000209DF8073003F08F03802B00F0818013
:1018C8002B78F02B84BF0A232B7004B0BDE8F08777
:1018D800012248F24E100DF10701FFF72FFF9DF985
:1018E80007309DF80770002B07F00F040BDA052C62
:1018F80009D80023012248F24E100DF10B018DF892
:101908000B30FFF7D1FEE2B2013C042CD0D8FF2304
:1019180093408DF80B30DB434FF00008334C63F0F5
:101928003F0394F8209084F82030A389DFF8C0A002
:10193800A382E38A04F10C06E38394F8203043FA87
:1019480008F3DB0716D504223AF8180003A9FFF7B5
:10195800F5FE94F8303013F0010FBDF80C3024D0A8
:1019680073819DF80E309DF80F20C3F54873A3EBE3
:101978000223338008F10108B8F1050F06F10206C9
:10198800DBD11C4BA1891A88914203D8E28A5B8873
:101998009A4206D917F00E0F0CD0E389A381238B46
:1019A800E382002301202B7083E73380BDF80E30DB
:1019B8007381DFE70120A38A84F82090A381E38B59
:1019C800E3820A4B93F9201093F820200029A9BF3D
:1019D8004FF6FF7102F07F0222F01F029981A8BF23
:1019E800D98283F820206BE7C50000200C00002076
:1019F800D0830008C600002030B5194B87B09A691B
:101A0800012442F004029A619A69164D02F0040218
:101A18000092009A9A69284642F010029A619B69DE
:101A2800022203F010030193019B0023CDE9024336
:101A3800032302A9CDE9042304F0BCFD4FF40043BD
:101A4800284602A90293049404F0B4FD2023064812
:101A580002A90293049404F0ADFD07B030BD00BFA5
:101A68000010024000080140001001404FF480724D
:101A7800054B06495A614FF400725A61C8608021CB
:101A8800596119611A61704700100140000C01404A
:101A98004FF088320E4B10B51A605A6000224FF48E
:101AA8008071DA6002F1804202F5883211614024C7
:101AB8004FF40071516154619868146111614FF0DD
:101AC80033321A605A604FF6FF7280B2DA6010BD86
:101AD800000C014010B50C46FFF7C8FF4FF48072A8
:101AE800054B06491A614FF400725A61CC60802197
:101AF800596119611A6110BD00100140000C0140C4
:101B0800014B1889FFF7B2BFC60000204FF480725E
:101B1800054B06491A614FF400725A61C86080216A
:101B2800596119611A61704700100140000C0140A9
:101B38002DE9F74F41F663127C4E8046B3887089D1
:101B48009342B6F80CA07A4C4FEA1129CFB274D15F
:101B5800358896F806B0013DBBF1000F4FD1FFF76D
:101B680085FF4FF4007380224FF480707149A5EB14
:101B78000805ADB220614FEA152C6361C1F80CB0BD
:101B880062612261236120616361C1F80CB0626106
:101B98002261236120616361EDB2C1F80CC062610A
:101BA80022612361206163615046CD6062612261D8
:101BB8002361FFF75BFF4FF4807580224FF40073B9
:101BC80071885C4801390E12C9B225616361C0F899
:101BD8000C9062612261236125616361C760626163
:101BE8002261236125616361C660626122612361AC
:101BF80025616361C16062612261236161E0FFF771
:101C080035FF4FF400734FF480704A494FEA1822A9
:101C180020616361CA6080225FFA88F862614FEAD6
:101C2800252C2261236120616361C1F80C80626107
:101C38002261236120616361AEE75FFA88F2019255
:101C480045F2105293424FEA182B3A4E4FF48078DF
:101C58003AD14FF40075FFF709FFC4F810806561A9
:101C6800C6F80CB04FF0800B0130C4F814B080B245
:101C7800C4F810B02561FFF7F9FE5046019BC4F87F
:101C880010806561F360C4F814B0C4F810B0256121
:101C9800FFF7ECFE0130C4F8108080B26561C6F829
:101CA8000C90C4F814B0C4F810B02561FFF7DEFE3C
:101CB800C4F810806561F760C4F814B0C4F810B0B7
:101CC800256103B0BDE8F08FFFF7D0FE4FF4007335
:101CD800C4F810806361C6F80CB04FF0800B019A0D
:101CE800C4F814B05046C4F810B02361C4F810808A
:101CF8006361F260C4F814B0C4F810B02361FFF750
:101D0800B5FE4FF40073C4F810806361C6F80C90F8
:101D1800C4F814B0C4F810B02361C4F8108063612B
:101D2800F760C4F814B0C4F810B066E7C600002025
:101D380000100140000C01402DE9F74F804E41F69C
:101D48006313B279B6F804B0012A0DD19B451AD1B4
:101D58000138062861D8DFE810F05B00550157010B
:101D680059015B0153015101AAB99B4513D10728B9
:101D780041D8DFE810F0450143014B014D014D000A
:101D8800400049014F00072833D8DFE800F00D3044
:101D98002C2A28322E26013806282AD8DFE800F017
:101DA8001F1D252321042700A02545F210539B451C
:101DB80022D14FF458502946FFF78CFE41F66311A3
:101DC8008B45338872885F4C00F0C080A90627D500
:101DD800934227D23280738024E04025E5E78025AE
:101DE800E3E76025E1E72025DFE7C025DDE7E0251B
:101DF800DBE70025D9E7002549F241339B4503D0AD
:101E080047F289739B4501D145F008053620D2E792
:101E18008025F1E736204025CDE736200025CAE7A2
:101E28009342D7D845F210539B45B6F8009077886F
:101E3800B6F80AA0B6F80C8040F0888009F1FF33A4
:101E48004FF480764FF080094FF0000B00937B1E13
:101E58004FF400773C4D50460193FFF707FE0AF117
:101E68000100266180B26761C5F80CB0C4F814900F
:101E7800C4F810902761FFF7F9FD0AF10200266106
:101E880080B26761C5F80CB0C4F81490C4F810901B
:101E98002761FFF7EBFD009B0AF103001912266189
:101EA80080B26761E960C4F81490C4F810902761A3
:101EB800FFF7DCFD9DF80010266140466761E96088
:101EC800C4F81490C4F810902761FFF7CFFD08F10B
:101ED8000100266180B26761C5F80CB0C4F814909F
:101EE800C4F810902761FFF7C1FD08F102002661D0
:101EF80080B26761C5F80CB0C4F81490C4F81090AB
:101F08002761FFF7B3FD019B08F103001912266151
:101F180080B26761E960C4F81490C4F81090276132
:101F2800FFF7A4FD9DF8043026616761EB60C4F8F3
:101F38001490C4F81090276103B0BDE8F08F00BF7B
:101F4800C600002000100140000C01404FF400754D
:101F580080274FF480794FF0000A7089FFF786FDDB
:101F68003388DFF8B080013B1A12DBB2C4F8109056
:101F7800B0896561C8F80CA0676127612561C4F85C
:101F880010906561C8F80CA0676127612561C4F8E5
:101F980010906561C8F80C20676127612561C4F855
:101FA80010906561C8F80C30676127612561FFF7FB
:101FB8005DFD7388C4F81090013B1A12DBB26561AD
:101FC800C8F80CA0676127612561C4F810906561A5
:101FD800C8F80CA0676127612561C4F81090656195
:101FE800C8F80C20676127612561C4F81090656105
:101FF800C8F80C306761276125619DE7E025FBE69D
:10200800A025F9E64025F7E6C025F5E62025F3E604
:102018006025F1E6000C014008B5FFF789FDFFF7E0
:102028006FFD4FF48072074B07491A614FF4007235
:10203800088806495A61C8608021596119611A6186
:1020480008BD00BF00100140D4000020000C014072
:102058002DE9F74F4FEA11295FFA81F845F210513F
:10206800DFF890A10192BAF80420BAF80C308A423D
:102078000546614CBAF80A0000934DD1FFF7F6FC0B
:102088004FF4007680274FF48073DFF870B1290A87
:102098000130236180B26661CBF80C10676127615B
:1020A8002661FFF7E3FC4FF48073EDB223616661AC
:1020B800CBF80C504FF48075009867612761266152
:1020C800FFF7D4FC0130256180B26661CBF80C9033
:1020D800676127612661FFF7C9FC25616661CBF856
:1020E8000C804FF400724FF48070BAF808304349FE
:1020F80067612761266160616261CB6080236361EB
:1021080023612261206101986261C8606361236173
:10211800226103B0BDE8F08F41F663118A4249D1CC
:102128009AF8062022B9BAF80020013A521B95B253
:10213800FFF79CFC4FF4007680274FF480712F4AFC
:10214800280AEDB221616661D06067612761266166
:1021580021616661D56067612761266121616661D9
:10216800D060676100982761266121616661D5604A
:10217800676127612661FFF779FC4FF480711F4A78
:1021880021616661C2F80C9067612761266121614F
:102198006661C2F80C80676127612661216166610A
:1021A800C2F80C9067612761266121616661C2F8F7
:1021B8000C8096E7FFF75AFC4FF400764FF48071D5
:1021C80080270E4A280AEDB221616661D0606761F6
:1021D80000982761266121616661D5606761276182
:1021E8002661FFF743FC4FF48071044A2161666160
:1021F800D6E700BFC600002000100140000C0140D7
:102208002DE9F8438146BE20FFF730FC4FF40075F6
:1022180080264FF4807805231F4C204FC4F8108087
:1022280048466561FB60666126612561C4F81080D7
:102238006561FEF751F916A3D3E90023FEF7B6F955
:10224800FEF764FC0123F860666126612561C4F825
:1022580010806561FB60FF23666126612561C4F813
:1022680010806561FB600023666126612561C4F802
:1022780010806561FB60666126612561C4F8108085
:102288006561FB60666126612561BDE8F88300BF72
:10229800666666666666044000100140000C0140F0
:1022A800304B10B44FF4A071F0249A88987178BB21
:1022B80045F2105082421C80598012D14FF430529E
:1022C8001A814FF428525A814FF42C529A814FF4B4
:1022D800F0721A804FF448725A80002010BCFFF741
:1022E8002BBD41F6631082424FF02C00188103D1B8
:1022F8002B225A812A22E9E72A2058812B2098810B
:1023080045F210308242E8D119804FF4F072E3E7C9
:1023180045F21050824219805C800CD14FF4305243
:102328001A814FF428525A814FF42C529A814FF453
:1023380048721A80E9E741F663102C2482424FF074
:102348002A001C81588101D12B22EFE72B2098818C
:1023580045F21030824202BF4FF4F07259801A8061
:10236800BBE700BFC60000200021F8B50E4B0546AC
:102378001A885C88084654434FF48076FFF7D8FBE8
:10238800FFF7BEFB00224FF400718020074B084F77
:10239800A24200D1F8BD1E6101325961FD60586149
:1023A80018611961F4E700BFC60000200010014061
:1023B800000C01402DE9F04F314B87B09A69012498
:1023C80042F008029A619A692E4802F008020092C7
:1023D800009A9A6902A942F010029A619B690494D2
:1023E80003F010030193019B4FF4F863CDE9023425
:1023F8000323059304F0DEF84FF6FF7302A9224881
:10240800029304F0D7F8214A3220536823F0E0639E
:1024180043F080635360FEF7EFFF21460020FFF78B
:1024280059FB3220FEF7E8FFD320FFF71FFBFFF729
:102438002FFBFFF72DFBFFF72BFB0446FFF728FBCD
:1024480049F2413340EA042080B2114C9842A080FE
:1024580068D00420FFF70AFBFFF71AFBFFF718FB09
:10246800FFF716FB0546FFF713FB48F2525340EA05
:10247800052080B2984247F289730BD1A38051E0BE
:102488000010024000100140000C01400000014013
:10249800C60000209842A08044D0D420FFF7E6FA76
:1024A800FFF7F6FAFFF7F4FAFFF7F2FA0546FFF737
:1024B800EFFA45F2103340EA052080B29842A08036
:1024C80030D04FF45A40FFF7D1FAFFF7E1FA4FF452
:1024D8005B40FFF7CBFAFFF7DBFA05464FF45C40A9
:1024E800FFF7C4FAFFF7D4FA40EA052080B2B0F546
:1024F800004F45F21053C1D09842A08012D0A120BD
:10250800FFF7B4FAFFF7C4FAFFF7C2FA0546FFF778
:10251800BFFA45F2617340EA052080B2984200F0A4
:102528002481A080A188924804F004FF49F2413236
:10253800A388934240F02081CF20FFF797FA00202C
:10254800FFF7E4FAC120FFF7E1FA3020FFF7DEFADF
:10255800ED20FFF78BFA6420FFF7D8FA0320FFF786
:10256800D5FA1220FFF7D2FA8120FFF7CFFAE82038
:10257800FFF77CFA8520FFF7C9FA1020FFF7C6FAA3
:102588007A20FFF7C3FACB20FFF770FA3920FFF75C
:10259800BDFA2C20FFF7BAFA0020FFF7B7FA34206B
:1025A800FFF7B4FA0220FFF7B1FAF720FFF75EFA57
:1025B8002020FFF7ABFAEA20FFF758FA0020FFF7D0
:1025C800A5FAFFF7A3FAC020FFF750FA1B20FFF780
:1025D8009DFAC120FFF74AFA0120FFF797FAC520B4
:1025E800FFF744FA3020FFF791FAFFF78FFAC72078
:1025F800FFF73CFAB720FFF789FA3620FFF736FADB
:102608004820FFF783FA3A20FFF730FA5520FFF702
:102618007DFAB120FFF72AFA0020FFF777FA1A208F
:10262800FFF774FAB620FFF721FA0A20FFF76EFACF
:10263800A220FFF76BFAF220FFF718FA0020FFF745
:1026480065FA2620FFF712FA0120FFF75FFAE0206B
:10265800FFF70CFA0F20FFF759FA2A20FFF756FA6E
:102668002820FFF753FA0820FFF750FA0E20FFF74B
:102678004DFA0820FFF74AFA5420FFF747FAA92035
:10268800FFF744FA4320FFF741FA0A20FFF73EFA22
:102698000F20FFF73BFA0020FFF738FAFFF736FA6A
:1026A800FFF734FAFFF732FAE120FFF7DFF90020ED
:1026B800FFF72CFA1520FFF729FA1720FFF726FA5B
:1026C8000720FFF723FA1120FFF720FA0620FFF76B
:1026D8001DFA2B20FFF71AFA5620FFF717FA3C20AD
:1026E800FFF714FA0520FFF711FA1020FFF70EFA8A
:1026F8000F20FFF70BFA3F20FFF708FAFFF706FA5B
:102708000F20FFF703FA2B20FFF7B0F90020FFF79F
:10271800FDF9FFF7FBF90120FFF7F8F93F20FFF774
:10272800F5F92A20FFF7A2F90020FFF7EFF9FFF7E4
:10273800EDF9FFF7EBF9EF20FFF7E8F91120FFF7C4
:1027480095F97820FEF758FE2920FFF78FF9002029
:10275800FFF7A6FD0122074B4FF6FF70C3F8A8212B
:10276800FFF702FE07B0BDE8F08F41F6631385E678
:102778006E8200080000224247F28972934240F0BC
:10278800CB801120FFF772F97820FEF735FE36204E
:10279800FFF76CF90020FFF7B9F93A20FFF766F95F
:1027A8000520FFF7B3F9B220FFF760F90C20FFF717
:1027B800ADF9FFF7ABF90020FFF7A8F93320FFF7D1
:1027C800A5F9FFF7A3F9B720FFF750F93520FFF770
:1027D8009DF9BB20FFF74AF93220FFF797F9C0208F
:1027E800FFF744F90C20FFF791F9C220FFF73EF9F3
:1027F8000120FFF78BF9C320FFF738F91020FFF706
:1028080085F9C420FFF732F92020FFF77FF9C620A9
:10281800FFF72CF90F20FFF779F9D020FFF726F9F9
:10282800A420FFF773F9A120FFF770F9E020FFF764
:102838001DF9D020FFF76AF90020FFF767F9022099
:10284800FFF764F90720FFF761F90A20FFF75EF93F
:102858002820FFF75BF93220FFF758F94420FFF7EB
:1028680055F94220FFF752F90620FFF74FF90E20DD
:10287800FFF74CF91220FFF749F91420FFF746F942
:102888001720FFF743F9E120FFF7F0F8D020FFF712
:102898003DF90020FFF73AF90220FFF737F9072042
:1028A800FFF734F90A20FFF731F92820FFF72EF94E
:1028B8003120FFF72BF95420FFF728F94720FFF7BD
:1028C80025F90E20FFF722F91C20FFF71FF9172022
:1028D800FFF71CF91B20FFF719F91E20FFF716F95F
:1028E8002A20FFF7C3F80020FFF710F9FFF70EF9C9
:1028F800FFF70CF9EF20FFF709F92B20FFF7B6F8DF
:102908000020FFF703F9FFF701F90120FFF7FEF8B0
:102918003F20FFF7FBF817E745F21032934240F0EB
:102928002487ED20FFF7A2F80120FFF7EFF8FE203B
:10293800FFF7ECF8EE20FFF799F8DE20FFF7E6F84E
:102948002120FFF7E3F8F120FFF790F80120FFF7C7
:10295800DDF8DF20FFF78AF81020FFF7D7F8C4204A
:10296800FFF784F88F20FFF7D1F8C620FFF77EF82D
:102978000020FFF7CBF8E220FFF7C8F8FFF7C6F80A
:10298800FFF7C4F8BF20FFF771F8AA20FFF7BEF8D9
:10299800B020FFF76BF80D20FFF7B8F80020FFF71D
:1029A800B5F80D20FFF7B2F80020FFF7AFF81120B7
:1029B800FFF7ACF80020FFF7A9F81920FFF7A6F8F1
:1029C8000020FFF7A3F82120FFF7A0F80020FFF769
:1029D8009DF82D20FFF79AF80020FFF797F83D2083
:1029E800FFF794F80020FFF791F85D20FFF78EF8C5
:1029F8000020FFF78BF85D20FFF788F80020FFF72D
:102A080085F8B120FFF732F88020FFF77FF8002023
:102A1800FFF77CF88B20FFF779F80020FFF776F8AE
:102A28009620FFF773F80020FFF770F8B220FFF741
:102A38001DF80020FFF76AF8FFF768F80220FFF793
:102A480065F80020FFF762F80320FFF75FF8002021
:102A5800FFF75CF8B320FFF709F80020FFF756F8F6
:102A6800FFF754F8FFF752F8FFF750F8FFF74EF862
:102A7800FFF74CF8FFF74AF8FFF748F8FFF746F872
:102A8800FFF744F8FFF742F8FFF740F8FFF73EF882
:102A9800FFF73CF8FFF73AF8FFF738F8FFF736F892
:102AA800FFF734F8FFF732F8FFF730F8FFF72EF8A2
:102AB800FFF72CF8FFF72AF8FFF728F8B420FEF7FD
:102AC800D5FF8B20FFF722F80020FFF71FF896208C
:102AD800FFF71CF80020FFF719F8A120FFF716F8F8
:102AE8000020FFF713F8B520FEF7C0FF0220FFF71C
:102AF8000DF80020FFF70AF80320FFF707F8002079
:102B0800FFF704F80420FFF701F80020FEF7FEFFA6
:102B1800B620FEF7ABFF0020FEF7F8FFFEF7F6FF42
:102B2800B720FEF7A3FF0020FEF7F0FFFEF7EEFF49
:102B38003F20FEF7EBFF0020FEF7E8FF5E20FEF7E0
:102B4800E5FF0020FEF7E2FF6420FEF7DFFF00202C
:102B5800FEF7DCFF8C20FEF7D9FF0020FEF7D6FF3A
:102B6800AC20FEF7D3FF0020FEF7D0FFDC20FEF7F5
:102B7800CDFF0020FEF7CAFF7020FEF7C7FF002038
:102B8800FEF7C4FF9020FEF7C1FF0020FEF7BEFF4E
:102B9800EB20FEF7BBFF0020FEF7B8FFDC20FEF7B6
:102BA800B5FF0020FEF7B2FFB820FEF75FFF002058
:102BB800FEF7ACFFFEF7AAFFFEF7A8FFFEF7A6FF99
:102BC800FEF7A4FFFEF7A2FFFEF7A0FFFEF79EFFA9
:102BD800BA20FEF74BFF2420FEF798FF0020FEF7EF
:102BE80095FFFEF793FFFEF791FFC120FEF73EFF2A
:102BF8002020FEF78BFF0020FEF788FF5420FEF709
:102C080085FF0020FEF782FFFF20FEF77FFF0020F0
:102C1800FEF77CFFC220FEF729FF0A20FEF776FFA9
:102C28000020FEF773FF0420FEF770FF0020FEF778
:102C38006DFFC320FEF71AFF3C20FEF767FF002058
:102C4800FEF764FF3A20FEF761FF0020FEF75EFF03
:102C58003920FEF75BFF0020FEF758FF3720FEF70C
:102C680055FF0020FEF752FF3C20FEF74FFF0020E3
:102C7800FEF74CFF3620FEF749FF0020FEF746FF1F
:102C88003220FEF743FF0020FEF740FF2F20FEF71B
:102C98003DFF0020FEF73AFF2C20FEF737FF00200B
:102CA800FEF734FF2920FEF731FF0020FEF72EFF44
:102CB8002620FEF72BFF0020FEF728FF2420FEF732
:102CC80025FF0020FEF722FF2420FEF71FFF00202B
:102CD800FEF71CFF2320FEF719FF0020FEF716FF62
:102CE8003C20FEF713FF0020FEF710FF3620FEF70A
:102CF8000DFF0020FEF70AFF3220FEF707FF002035
:102D0800FEF704FF2F20FEF701FF0020FEF7FEFE6E
:102D18002C20FEF7FBFE0020FEF7F8FE2920FEF728
:102D2800F5FE0020FEF7F2FE2620FEF7EFFE00205B
:102D3800FEF7ECFE2420FEF7E9FE0020FEF7E6FE93
:102D48002420FEF7E3FE0020FEF7E0FE2320FEF736
:102D5800DDFE0020FEF7DAFEC420FEF787FE6220C3
:102D6800FEF7D4FE0020FEF7D1FE0520FEF7CEFECA
:102D78000020FEF7CBFE8420FEF7C8FE0020FEF7F9
:102D8800C5FEF020FEF7C2FE0020FEF7BFFE1820A9
:102D9800FEF7BCFE0020FEF7B9FEA420FEF7B6FE43
:102DA8000020FEF7B3FE1820FEF7B0FE0020FEF765
:102DB800ADFE5020FEF7AAFE0020FEF7A7FE0C206D
:102DC800FEF7A4FE0020FEF7A1FE1720FEF79EFEE8
:102DD8000020FEF79BFE9520FEF798FE0020FEF7E8
:102DE80095FEF320FEF792FE0020FEF78FFEE62008
:102DF800FEF78CFE0020FEF789FEC520FEF736FEA2
:102E08003220FEF783FE0020FEF780FE4420FEF706
:102E18007DFE0020FEF77AFE6520FEF777FE002093
:102E2800FEF774FE7620FEF771FE0020FEF76EFEB8
:102E38008820FEF76BFE0020FEF768FEC620FEF72E
:102E480015FE2020FEF762FE0020FEF75FFE172029
:102E5800FEF75CFE0020FEF759FE0120FEF756FE45
:102E68000020FEF753FEC720FEF700FE0020FEF705
:102E78004DFEFEF74BFEFEF749FEFEF747FEC82063
:102E8800FEF7F4FD0020FEF741FEFEF73FFEFEF7D9
:102E98003DFEFEF73BFEC920FEF7E8FD0020FEF7E9
:102EA80035FEFEF733FEFEF731FEFEF72FFEFEF786
:102EB8002DFEFEF72BFEFEF729FEFEF727FEFEF796
:102EC80025FEFEF723FEFEF721FEFEF71FFEFEF7A6
:102ED8001DFEFEF71BFEFEF719FEFEF717FEE020AB
:102EE800FEF7C4FD1620FEF711FE0020FEF70EFEC9
:102EF8001C20FEF70BFE0020FEF708FE2120FEF73F
:102F080005FE0020FEF702FE3620FEF7FFFD00203A
:102F1800FEF7FCFD4620FEF7F9FD0020FEF7F6FD62
:102F28005220FEF7F3FD0020FEF7F0FD6420FEF7C7
:102F3800EDFD0020FEF7EAFD7A20FEF7E7FD002010
:102F4800FEF7E4FD8B20FEF7E1FD0020FEF7DEFD35
:102F58009920FEF7DBFD0020FEF7D8FDA820FEF73C
:102F6800D5FD0020FEF7D2FDB920FEF7CFFD0020E9
:102F7800FEF7CCFDC420FEF7C9FD0020FEF7C6FD14
:102F8800CA20FEF7C3FD0020FEF7C0FDD220FEF7E1
:102F9800BDFD0020FEF7BAFDD920FEF7B7FD0020E1
:102FA800FEF7B4FDE020FEF7B1FD0020FEF7AEFD10
:102FB800F320FEF7ABFD0020FEF7A8FDE120FEF7A9
:102FC80055FD1620FEF7A2FD0020FEF79FFD1C20F0
:102FD800FEF79CFD0020FEF799FD2220FEF796FDE6
:102FE8000020FEF793FD3620FEF790FD0020FEF747
:102FF8008DFD4520FEF78AFD0020FEF787FD522053
:10300800FEF784FD0020FEF781FD6420FEF77EFDBB
:103018000020FEF77BFD7A20FEF778FD0020FEF702
:1030280075FD8B20FEF772FD0020FEF76FFD9920DD
:10303800FEF76CFD0020FEF769FDA820FEF766FD8F
:103048000020FEF763FDB920FEF760FD0020FEF7C3
:103058005DFDC420FEF75AFD0020FEF757FDCA208B
:10306800FEF754FD0020FEF751FDD220FEF74EFD7D
:103078000020FEF74BFDD820FEF748FD0020FEF7A4
:1030880045FDE020FEF742FD0020FEF73FFDF3205E
:10309800FEF73CFD0020FEF739FDE220FEF7E6FCD6
:1030A8000520FEF733FD0020FEF730FD0B20FEF76C
:1030B8002DFD0020FEF72AFD1B20FEF727FD00202E
:1030C800FEF724FD3420FEF721FD0020FEF71EFD4B
:1030D8004420FEF71BFD0020FEF718FD4F20FEF7E9
:1030E80015FD0020FEF712FD6120FEF70FFD002000
:1030F800FEF70CFD7920FEF709FD0020FEF706FD1E
:103108008820FEF703FD0020FEF700FD9720FEF75C
:10311800FDFC0020FEF7FAFCA620FEF7F7FC0020D5
:10312800FEF7F4FCB720FEF7F1FC0020FEF7EEFCFA
:10313800C220FEF7EBFC0020FEF7E8FCC720FEF7F4
:10314800E5FC0020FEF7E2FCD120FEF7DFFC0020C2
:10315800FEF7DCFCD620FEF7D9FC0020FEF7D6FCF3
:10316800DD20FEF7D3FC0020FEF7D0FCF320FEF7AD
:10317800CDFC0020FEF7CAFCE320FEF777FC052013
:10318800FEF7C4FC0020FEF7C1FC0A20FEF7BEFCD7
:103198000020FEF7BBFC1C20FEF7B8FC0020FEF761
:1031A800B5FC3320FEF7B2FC0020FEF7AFFC44204C
:1031B800FEF7ACFC0020FEF7A9FC5020FEF7A6FCA9
:1031C8000020FEF7A3FC6220FEF7A0FC0020FEF71B
:1031D8009DFC7820FEF79AFC0020FEF797FC8820DB
:1031E800FEF794FC0020FEF791FC9720FEF78EFC7A
:1031F8000020FEF78BFCA620FEF788FC0020FEF7D7
:1032080085FCB720FEF782FC0020FEF77FFCC22079
:10321800FEF77CFC0020FEF779FCC720FEF776FC61
:103228000020FEF773FCD120FEF770FC0020FEF7AB
:103238006DFCD520FEF76AFC0020FEF767FCDD2058
:10324800FEF764FC0020FEF761FCF320FEF75EFC4D
:103258000020FEF75BFCE420FEF708FC0120FEF7E7
:1032680055FC0020FEF752FC0120FEF74FFC002021
:10327800FEF74CFC0220FEF749FC0020FEF746FC56
:103288002A20FEF743FC0020FEF740FC3C20FEF716
:103298003DFC0020FEF73AFC4B20FEF737FC0020EF
:1032A800FEF734FC5D20FEF731FC0020FEF72EFC13
:1032B8007420FEF72BFC0020FEF728FC8420FEF784
:1032C80025FC0020FEF722FC9320FEF71FFC0020BF
:1032D800FEF71CFCA220FEF719FC0020FEF716FCE6
:1032E800B320FEF713FC0020FEF710FCBE20FEF70B
:1032F8000DFC0020FEF70AFCC420FEF707FC0020A6
:10330800FEF704FCCD20FEF701FC0020FEF7FEFBD3
:10331800D320FEF7FBFB0020FEF7F8FBDD20FEF7CD
:10332800F5FB0020FEF7F2FBF320FEF7EFFB002091
:10333800FEF7ECFBE520FEF799FB0020FEF7E6FB25
:10334800FEF7E4FBFEF7E2FBFEF7E0FB0220FEF7E8
:10335800DDFB0020FEF7DAFB2920FEF7D7FB002073
:10336800FEF7D4FB3C20FEF7D1FB0020FEF7CEFB96
:103378004B20FEF7CBFB0020FEF7C8FB5D20FEF7D5
:10338800C5FB0020FEF7C2FB7420FEF7BFFB002040
:10339800FEF7BCFB8420FEF7B9FB0020FEF7B6FB66
:1033A8009320FEF7B3FB0020FEF7B0FBA220FEF748
:1033B800ADFB0020FEF7AAFBB320FEF7A7FB002019
:1033C800FEF7A4FBBE20FEF7A1FB0020FEF79EFB44
:1033D800C420FEF79BFB0020FEF798FBCD20FEF7EC
:1033E80095FB0020FEF792FBD320FEF78FFB002011
:1033F800FEF78CFBDC20FEF789FB0020FEF786FB3E
:10340800F320FEF783FB0020FEF780FBE620FEF7A3
:103418002DFB1120FEF77AFB0020FEF777FB342006
:10342800FEF774FB0020FEF771FB5620FEF76EFBDB
:103438000020FEF76BFB7620FEF768FB0020FEF706
:1034480065FB7720FEF762FB0020FEF75FFB662036
:10345800FEF75CFB0020FEF759FB8820FEF756FBC1
:103468000020FEF753FB9920FEF750FB0020FEF7E3
:103478004DFBBB20FEF74AFB0020FEF747FB9920D7
:10348800FEF744FB0020FEF741FB6620FEF73EFBFB
:103498000020FEF73BFB5520FEF738FB0020FEF727
:1034A80035FB5520FEF732FB0020FEF72FFB4520A9
:1034B800FEF72CFB0020FEF729FB4320FEF726FB36
:1034C8000020FEF723FB4420FEF720FB0020FEF738
:1034D8001DFBE720FEF7CAFA3220FEF717FB002093
:1034E800FEF714FB5520FEF711FB0020FEF70EFB3C
:1034F8007620FEF70BFB0020FEF708FB6620FEF7A0
:1035080005FB0020FEF702FB6720FEF7FFFA00200C
:10351800FEF7FCFA6720FEF7F9FA0020FEF7F6FA44
:103528008720FEF7F3FA0020FEF7F0FA9920FEF75D
:10353800EDFA0020FEF7EAFABB20FEF7E7FA0020D2
:10354800FEF7E4FA9920FEF7E1FA0020FEF7DEFA2A
:103558007720FEF7DBFA0020FEF7D8FA4420FEF7C2
:10356800D5FA0020FEF7D2FA5620FEF7CFFA00204F
:10357800FEF7CCFA2320FEF7C9FA0020FEF7C6FAB8
:103588003320FEF7C3FA0020FEF7C0FA4520FEF705
:10359800BDFA0020FEF7BAFAE820FEF767FA002025
:1035A800FEF7B4FAFEF7B2FA9920FEF7AFFA002058
:1035B800FEF7ACFA8720FEF7A9FA0020FEF7A6FA74
:1035C8008820FEF7A3FA0020FEF7A0FA7720FEF77E
:1035D8009DFA0020FEF79AFA6620FEF797FA002077
:1035E800FEF794FA8820FEF791FA0020FEF78EFA8B
:1035F800AA20FEF78BFA0020FEF788FABB20FEF718
:1036080085FA0020FEF782FA9920FEF77FFA00205B
:10361800FEF77CFA6620FEF779FA0020FEF776FAC4
:103628005520FEF773FA0020FEF770FA5520FEF7D2
:103638006DFA0020FEF76AFA4420FEF767FA0020C8
:10364800FEF764FA4420FEF761FA0020FEF75EFAFE
:103658005520FEF75BFA0020FEF758FAE920FEF73E
:1036680005FAAA20FEF752FA0020FEF74FFAFEF7F5
:103678004DFAFEF74BFAFEF7F9F9AA20FEF746FADB
:10368800CF20FEF7F3F90020FEF740FAFEF73EFAE6
:10369800FEF73CFAFEF73AFAFEF738FAFEF736FA82
:1036A800FEF734FAFEF732FAFEF730FAFEF72EFA92
:1036B800FEF72CFAFEF72AFAFEF728FAFEF726FAA2
:1036C800FEF724FAFEF722FAFEF720FAF020FEF7BA
:1036D800CDF90020FEF71AFA5020FEF717FA00205D
:1036E800FEF714FAFEF712FAFEF710FAF320FEF7C7
:1036F800BDF90020FEF70AFAF920FEF7B7F906200F
:10370800FEF704FA1020FEF701FA2920FEF7FEF969
:103718000020FEF7FBF93A20FEF7A8F95520FEF73E
:10372800F5F91120FEF7A2F96420FDF765FE2920BE
:10373800FEF79CF93520FEF799F90020FEF7E6F927
:103748005120FEF793F9FF20FEF7E0F95320FEF72A
:103758008DF92C20FEF7DAF95520FEF787F982203B
:10376800FEF7D4F92C20FEF7F0BF45F21052934231
:1037780040F07C8755214FF47040FEF7ABF9AA2141
:103788004FF20100FEF7A6F952214FF20200FEF7B0
:10379800A1F908214FF20300FEF79CF901214FF22D
:1037A8000400FEF797F90D214FF43040FEF792F927
:1037B8000D214BF20100FEF78DF90D214BF20200AD
:1037C800FEF788F934214FF43640FEF783F93421A7
:1037D8004BF20160FEF77EF934214BF20260FEF7EE
:1037E80079F90D214FF43140FEF774F90D214BF2B0
:1037F8000110FEF76FF90D214BF20210FEF76AF97E
:1038080034214FF43740FEF765F934214BF201704B
:10381800FEF760F934214BF20270FEF75BF90021E4
:103828004FF43240FEF756F900214BF20120FEF723
:1038380051F900214BF20220FEF74CF924214FF4F4
:103848003840FEF747F924214BF60100FEF742F90C
:1038580024214BF60200FEF73DF901214FF43F40C9
:10386800FEF738F90F214FF43340FEF733F90F21F3
:103878004BF20130FEF72EF90F214BF20230FEF722
:1038880029F934214FF43940FEF724F934214BF655
:103898000110FEF71FF934214BF60210FEF71AF952
:1038A80008214FF43540FEF715F908214BF2015075
:1038B800FEF710F908214BF20250FEF70BF903212D
:1038C8004FF44240FEF706F924214FF43A40FEF740
:1038D80001F924214BF60120FEF7FCF824214BF6D0
:1038E8000220FEF7F7F800214FF43C40FEF7F2F80B
:1038F80078214BF60140FEF7EDF800214BF6024027
:10390800FEF7E8F800214FF43D40FEF7E3F8782190
:103918004BF60150FEF7DEF800214BF60250FEF799
:10392800D9F800214FF43E40FEF7D4F864214BF655
:103938000160FEF7CFF800214FF45140FEF7CAF8B6
:1039480033214DF20110FEF7C5F800214DF20210A7
:10395800FEF7C0F834214DF20310FEF7BBF8002142
:103968004DF20410FEF7B6F83A214DF20510FEF7B5
:10397800B1F800214DF20610FEF7ACF84A214DF2DD
:103988000710FEF7A7F800214DF20810FEF7A2F87D
:103998005C214DF20910FEF79DF800214DF20A1046
:1039A800FEF798F881214DF20B10FEF793F80021ED
:1039B8004DF20C10FEF78EF8A6214DF20D10FEF711
:1039C80089F800214DF20E10FEF784F8E5214DF23A
:1039D8000F10FEF77FF801214DF21010FEF77AF86C
:1039E80013214DF21110FEF775F801214DF2121056
:1039F800FEF770F854214DF21310FEF76BF8012111
:103A08004DF21410FEF766F882214DF21510FEF7FC
:103A180061F801214DF21610FEF75CF8CA214DF24B
:103A28001710FEF757F802214DF21810FEF752F85A
:103A380000214DF21910FEF74DF802214DF21A102F
:103A4800FEF748F801214DF21B10FEF743F802215A
:103A58004DF21C10FEF73EF834214DF21D10FEF712
:103A680039F802214DF21E10FEF734F867214DF2A5
:103A78001F10FEF72FF802214DF22010FEF72AF84A
:103A880084214DF22110FEF725F802214DF2221073
:103A9800FEF720F8A4214DF22310FEF71BF80221AF
:103AA8004DF22410FEF716F8B7214DF22510FEF757
:103AB80011F802214DF22610FEF70CF8CF214DF235
:103AC8002710FEF707F802214DF22810FEF702F83A
:103AD800DE214DF22910FDF7FDFF02214DF22A10DB
:103AE800FDF7F8FFF2214DF22B10FDF7F3FF02214D
:103AF8004DF22C10FDF7EEFFFE214DF22D10FDF7D3
:103B0800E9FF03214DF22E10FDF7E4FF10214DF2DD
:103B18002F10FDF7DFFF03214DF23010FDF7DAFF1C
:103B280033214DF23110FDF7D5FF03214DF232104C
:103B3800FDF7D0FF6D214DF23310FDF7CBFF0021CB
:103B48004FF45240FDF7C6FF33214DF20120FDF737
:103B5800C1FF00214DF20220FDF7BCFF34214DF2D8
:103B68000320FDF7B7FF00214DF20420FDF7B2FF57
:103B78003A214DF20520FDF7ADFF00214DF2062058
:103B8800FDF7A8FF4A214DF20720FDF7A3FF00210A
:103B98004DF20820FDF79EFF5C214DF20920FDF74C
:103BA80099FF00214DF20A20FDF794FF81214DF283
:103BB8000B20FDF78FFF00214DF20C20FDF78AFF47
:103BC800A6214DF20D20FDF785FF00214DF20E20B4
:103BD800FDF780FFE5214DF20F20FDF77BFF012166
:103BE8004DF21020FDF776FF13214DF21120FDF75D
:103BF80071FF01214DF21220FDF76CFF54214DF2A7
:103C08001320FDF767FF01214DF21420FDF762FF35
:103C180082214DF21520FDF75DFF01214DF216209E
:103C2800FDF758FFCA214DF21720FDF753FF022177
:103C38004DF21820FDF74EFF00214DF21920FDF737
:103C480049FF02214DF21A20FDF744FF01214DF2F0
:103C58001B20FDF73FFF02214DF21C20FDF73AFF24
:103C680034214DF21D20FDF735FF02214DF21E20B3
:103C7800FDF730FF67214DF21F20FDF72BFF0221D2
:103C88004DF22020FDF726FF84214DF22120FDF77B
:103C980021FF02214DF22220FDF71CFFA4214DF245
:103CA8002320FDF717FF02214DF22420FDF712FF14
:103CB800B7214DF22520FDF70DFF02214DF22620F8
:103CC800FDF708FFCF214DF22720FDF703FF022162
:103CD8004DF22820FDF7FEFEDE214DF22920FDF7EA
:103CE800F9FE02214DF22A20FDF7F4FEF2214DF2F1
:103CF8002B20FDF7EFFE02214DF22C20FDF7EAFE06
:103D0800FE214DF22D20FDF7E5FE03214DF22E2078
:103D1800FDF7E0FE10214DF22F20FDF7DBFE032119
:103D28004DF23020FDF7D6FE33214DF23120FDF75C
:103D3800D1FE03214DF23220FDF7CCFE6D214DF26C
:103D48003320FDF7C7FE00214FF45340FDF7C2FEB4
:103D580033214DF20130FDF7BDFE00214DF2023056
:103D6800FDF7B8FE34214DF20330FDF7B3FE002114
:103D78004DF20430FDF7AEFE3A214DF20530FDF765
:103D8800A9FE00214DF20630FDF7A4FE4A214DF2AE
:103D98000730FDF79FFE00214DF20830FDF79AFE2F
:103DA8005C214DF20930FDF795FE00214DF20A30F5
:103DB800FDF790FE81214DF20B30FDF78BFE0021BF
:103DC8004DF20C30FDF786FEA6214DF20D30FDF7C1
:103DD80081FE00214DF20E30FDF77CFEE5214DF20B
:103DE8000F30FDF777FE01214DF21030FDF772FE1E
:103DF80013214DF21130FDF76DFE01214DF2123005
:103E0800FDF768FE54214DF21330FDF763FE0121E2
:103E18004DF21430FDF75EFE82214DF21530FDF7AC
:103E280059FE01214DF21630FDF754FECA214DF21C
:103E38001730FDF74FFE02214DF21830FDF74AFE0C
:103E480000214DF21930FDF745FE02214DF21A30DE
:103E5800FDF740FE01214DF21B30FDF73BFE02212C
:103E68004DF21C30FDF736FE34214DF21D30FDF7C2
:103E780031FE02214DF21E30FDF72CFE67214DF276
:103E88001F30FDF727FE02214DF22030FDF722FEFC
:103E980084214DF22130FDF71DFE02214DF2223022
:103EA800FDF718FEA4214DF22330FDF713FE022181
:103EB8004DF22430FDF70EFEB7214DF22530FDF707
:103EC80009FE02214DF22630FDF704FECF214DF206
:103ED8002730FDF7FFFD02214DF22830FDF7FAFDEE
:103EE800DE214DF22930FDF7F5FD02214DF22A3091
:103EF800FDF7F0FDF2214DF22B30FDF7EBFD02212D
:103F08004DF22C30FDF7E6FDFE214DF22D30FDF788
:103F1800E1FD03214DF22E30FDF7DCFD10214DF2BD
:103F28002F30FDF7D7FD03214DF23030FDF7D2FDDC
:103F380033214DF23130FDF7CDFD03214DF2323002
:103F4800FDF7C8FD6D214DF23330FDF7C3FD0021AB
:103F58004FF45440FDF7BEFD33214DF20140FDF70B
:103F6800B9FD00214DF20240FDF7B4FD34214DF2B8
:103F78000340FDF7AFFD00214DF20440FDF7AAFD17
:103F88003A214DF20540FDF7A5FD00214DF206400E
:103F9800FDF7A0FD4A214DF20740FDF79BFD0021EA
:103FA8004DF20840FDF796FD5C214DF20940FDF702
:103FB80091FD00214DF20A40FDF78CFD81214DF263
:103FC8000B40FDF787FD00214DF20C40FDF782FD07
:103FD800A6214DF20D40FDF77DFD00214DF20E406A
:103FE800FDF778FDE5214DF20F40FDF773FD012146
:103FF8004DF21040FDF76EFD13214DF21140FDF713
:1040080069FD01214DF21240FDF764FD54214DF286
:104018001340FDF75FFD01214DF21440FDF75AFDF5
:1040280082214DF21540FDF755FD01214DF2164054
:10403800FDF750FDCA214DF21740FDF74BFD022157
:104048004DF21840FDF746FD00214DF21940FDF7ED
:1040580041FD02214DF21A40FDF73CFD01214DF2D0
:104068001B40FDF737FD02214DF21C40FDF732FDE4
:1040780034214DF21D40FDF72DFD02214DF21E4069
:10408800FDF728FD67214DF21F40FDF723FD0221B2
:104098004DF22040FDF71EFD84214DF22140FDF731
:1040A80019FD02214DF22240FDF714FDA4214DF225
:1040B8002340FDF70FFD02214DF22440FDF70AFDD4
:1040C800B7214DF22540FDF705FD02214DF22640AE
:1040D800FDF700FDCF214DF22740FDF7FBFC022143
:1040E8004DF22840FDF7F6FCDE214DF22940FDF7A0
:1040F800F1FC02214DF22A40FDF7ECFCF2214DF2D1
:104108002B40FDF7E7FC02214DF22C40FDF7E2FCC5
:10411800FE214DF22D40FDF7DDFC03214DF22E402E
:10412800FDF7D8FC10214DF22F40FDF7D3FC0321F9
:104138004DF23040FDF7CEFC33214DF23140FDF712
:10414800C9FC03214DF23240FDF7C4FC6D214DF24C
:104158003340FDF7BFFC00214FF45540FDF7BAFC92
:1041680033214DF20150FDF7B5FC00214DF202500C
:10417800FDF7B0FC34214DF20350FDF7ABFC0021F4
:104188004DF20450FDF7A6FC3A214DF20550FDF71B
:10419800A1FC00214DF20650FDF79CFC4A214DF28E
:1041A8000750FDF797FC00214DF20850FDF792FCEF
:1041B8005C214DF20950FDF78DFC00214DF20A50AB
:1041C800FDF788FC81214DF20B50FDF783FC00219F
:1041D8004DF20C50FDF77EFCA6214DF20D50FDF777
:1041E80079FC00214DF20E50FDF774FCE5214DF2EB
:1041F8000F50FDF76FFC01214DF21050FDF76AFCDE
:1042080013214DF21150FDF765FC01214DF21250BA
:10421800FDF760FC54214DF21350FDF75BFC0121C2
:104228004DF21450FDF756FC82214DF21550FDF762
:1042380051FC01214DF21650FDF74CFCCA214DF2FC
:104248001750FDF747FC02214DF21850FDF742FCCC
:1042580000214DF21950FDF73DFC02214DF21A5094
:10426800FDF738FC01214DF21B50FDF733FC02210C
:104278004DF21C50FDF72EFC34214DF21D50FDF778
:1042880029FC02214DF21E50FDF724FC67214DF256
:104298001F50FDF71FFC02214DF22050FDF71AFCBC
:1042A80084214DF22150FDF715FC02214DF22250D8
:1042B800FDF710FCA4214DF22350FDF70BFC022161
:1042C8004DF22450FDF706FCB7214DF22550FDF7BD
:1042D80001FC02214DF22650FDF7FCFBCF214DF2E7
:1042E8002750FDF7F7FB02214DF22850FDF7F2FBAE
:1042F800DE214DF22950FDF7EDFB02214DF22A5047
:10430800FDF7E8FBF2214DF22B50FDF7E3FB02210C
:104318004DF22C50FDF7DEFBFE214DF22D50FDF73E
:10432800D9FB03214DF22E50FDF7D4FB10214DF29D
:104338002F50FDF7CFFB03214DF23050FDF7CAFB9C
:1043480033214DF23150FDF7C5FB03214DF23250B8
:10435800FDF7C0FB6D214DF23350FDF7BBFB00218B
:104368004FF45640FDF7B6FB33214DF20160FDF7DF
:10437800B1FB00214DF20260FDF7ACFB34214DF298
:104388000360FDF7A7FB00214DF20460FDF7A2FBD7
:104398003A214DF20560FDF79DFB00214DF20660C4
:1043A800FDF798FB4A214DF20760FDF793FB0021CA
:1043B8004DF20860FDF78EFB5C214DF20960FDF7B8
:1043C80089FB00214DF20A60FDF784FB81214DF243
:1043D8000B60FDF77FFB00214DF20C60FDF77AFBC7
:1043E800A6214DF20D60FDF775FB00214DF20E6020
:1043F800FDF770FBE5214DF20F60FDF76BFB012126
:104408004DF21060FDF766FB13214DF21160FDF7C8
:1044180061FB01214DF21260FDF75CFB54214DF266
:104428001360FDF757FB01214DF21460FDF752FBB5
:1044380082214DF21560FDF74DFB01214DF216600A
:10444800FDF748FBCA214DF21760FDF743FB022137
:104458004DF21860FDF73EFB00214DF21960FDF7A3
:1044680039FB02214DF21A60FDF734FB01214DF2B0
:104478001B60FDF72FFB02214DF21C60FDF72AFBA4
:1044880034214DF21D60FDF725FB02214DF21E601F
:10449800FDF720FB67214DF21F60FDF71BFB022192
:1044A8004DF22060FDF716FB84214DF22160FDF7E7
:1044B80011FB02214DF22260FDF70CFBA4214DF205
:1044C8002360FDF707FB02214DF22460FDF702FB94
:1044D800B7214DF22560FDF7FDFA02214DF2266065
:1044E800FDF7F8FACF214DF22760FDF7F3FA022124
:1044F8004DF22860FDF7EEFADE214DF22960FDF756
:10450800E9FA02214DF22A60FDF7E4FAF2214DF2B0
:104518002B60FDF7DFFA02214DF22C60FDF7DAFA85
:10452800FE214DF22D60FDF7D5FA03214DF22E60E4
:10453800FDF7D0FA10214DF22F60FDF7CBFA0321D9
:104548004DF23060FDF7C6FA33214DF23160FDF7C8
:10455800C1FA03214DF23260FDF7BCFA6D214DF22C
:104568003360FDF7B7FA55214FF47040FDF7B2FA02
:10457800AA214FF20100FDF7ADFA52214FF20200D5
:10458800FDF7A8FA08214FF20300FDF7A3FA00216E
:104598004FF20400FDF79EFACC214FF43140FDF7AD
:1045A80099FA00214BF20110FDF794FA05214FF416
:1045B8003640FDF78FFA70214FF43740FDF78AFA3D
:1045C80070214BF20170FDF785FA01214FF4384054
:1045D800FDF780FA03214BF60100FDF77BFA032172
:1045E8004BF60200FDF776FA03214BF60300FDF7C0
:1045F80071FA02214FF43C40FDF76CFA00214BF6AA
:104608000140FDF767FA00214BF60240FDF762FA18
:10461800D0214FF44940FDF75DFA02214CF6011014
:10462800FDF758FA50214CF60210FDF753FA5021C5
:104638004CF60310FDF74EFA50214CF60410FDF726
:1046480049FA00214FF45450FDF744FA55214FF42C
:104658006850FDF73FFA4FF48850FDF707FA7820C5
:10466800FCF7B0FE4FF42450FEF76FB841F6631222
:1046780093427EF46CA8E2204FF400754FF48078E2
:10468800FDF7F4F91D23AC4CAC4F8026C4F810801C
:1046980004226561FB6002234FF0010A4FF0030B0F
:1046A8006661642026612561C4F810806561FB603D
:1046B800666126612561C4F810806561FA606661EB
:1046C80026612561FCF77EFEE020FDF7CFF9C4F8EE
:1046D80010800A206561C7F80CA066612661256113
:1046E800FCF78AFEE020FDF7C1F9C4F810800C2021
:1046F8006561C7F80CB0666126612561FCF77CFE30
:104708005046FDF7B3F90A20FCF776FEE620FDF7E0
:10471800ADF92F21C4F810806561F960FF21666149
:10472800B02026612561C4F810806561F960666172
:1047380026612561C4F810806561F96066612661AB
:104748002561FDF793F92021C4F810804FF0000986
:104758006561F96040F21F31666126612561C4F820
:1047680010806561C7F80C90666126612561C4F800
:1047780010806561C7F80CB0666126612561C4F8D0
:1047880010806561F96040F2DF116661B42026612E
:104798002561C4F810806561C7F80CA066612661C0
:1047A8002561C4F810806561F9606661266125613C
:1047B800C4F810806561C7F80C90666126612561B0
:1047C800FDF754F90422C4F810806561FA6040F2DC
:1047D8001F42666126612561C4F810806561FA6030
:1047E8002E226661B62026612561C4F810806561B5
:1047F800C7F80C90666126612561C4F81080656170
:10480800FA60666126612561C4F810806561C7F8A1
:104818000C90666126612561C4F810806561C7F84F
:104828000C90666126612561C4F810806561C7F83F
:104838000C90666126612561C4F810806561C7F82F
:104848000C90666126612561FDF710F90223C4F812
:1048580010806561FB604FF4037366612661256112
:10486800C4F810806561FB601723666126612561C5
:10487800C4F810806561C7F80C90666126612561EF
:10488800C4F810806561FB6015236661F02026611D
:104898002561C4F810806561FB6066612661256149
:1048A800C4F810806561C7F80C90666126612561BF
:1048B800C4F810806561C7F80C90666126612561AF
:1048C800FDF7D4F8C4F8108029206561C7F80CB04A
:1048D800666126612561FDF7C9F8D020FDF7C6F8A5
:1048E800C4F81080BE206561C7F80C906661266127
:1048F8002561FDF7BBF80523C4F810806561FB60EE
:10490800FE236661B82026612561C4F810806561C0
:10491800FB60666126612561C4F810806561C7F88F
:104928000CA0666126612561C4F810806561C7F82E
:104938000C906661266103E000100140000C014004
:104948002561C4F810806561C7F80C90666126611E
:104958002561C4F810806561C7F80C90666126610E
:104968002561FDF783F8C4F81080BA206561C7F89F
:104978000CB0666126612561C4F810806561C7F8CE
:104988000CA0666126612561FDF770F8C4F81080F7
:1049980064206561C7F80CA0666126612561FDF792
:1049A8002FFCFDF7D4BE00BF2DE9F04707460C46A3
:1049B8009846151A0135BDF82090124EDFF848A028
:1049C800ADB2444501D9BDE8F08721463846FDF728
:1049D800AFF8FDF795F800234FF4807C4FF4007290
:1049E800802198B2854202D80134A4B2E9E7C6F81A
:1049F80010C001337261CAF80C9071613161326183
:104A0800EFE700BF00100140000C01402DE9F04F16
:104A18001D46A2EB0008B8F1000F04460B4685B00E
:104A2800A5EB01091DDC1ED0A0EB02084FF0FF32F8
:104A3800B9F1000F19DC1BD04FF0FF3BA1EB0509C2
:104A48000025C845C246B8BFCA462F462E460AF1B9
:104A5800010101910198A9B281420BDD05B0BDE8C1
:104A6800F08F0122E4E74246E2E74FF0010BE7E767
:104A7800CB46E5E799B2A0B24644039202934F446D
:104A8800FDF7CAFADDE90232B245BCBFA6EB0A0659
:104A9800A418BA45BCBFA7EB0A075B440135D9E7A0
:104AA8002DE9F0411C4606460D4617460B46FFF712
:104AB800ADFF2346324629463046FFF7A7FF234677
:104AC8003A4621463046FFF7A1FF23463A46294693
:104AD8003846BDE8F041FFF799BF2DE9F04F814610
:104AE8008A4617464FF00008540085B0C4F1030405
:104AF8001FFA88F6BDB209EB0602AAEB050B92B2C3
:104B08001FFA8BFB104659460392FDF785FAAAEB6C
:104B180006039BB205EB0900194680B20093019089
:104B2800FDF77AFA0AEB06039BB21946019802933D
:104B3800FDF772FA039A05EB0A01A9EB060610467F
:104B480089B2B6B20191FDF767FA30460199FDF7CF
:104B580063FAA9EB0505029BADB219462846FDF795
:104B68005BFA59463046FDF757FA28460099FDF793
:104B780053FA08F10108002CA9BFA8EB070304EBBE
:104B8800880404EB830307F1FF37B4BF063403F14D
:104B98000A044745ACDA05B0BDE8F08F2DE9F04FBF
:104BA8001C4685B09DF83830203A039314F007036B
:104BB80018BF0123D5B22422884603EBD403610829
:104BC8004B43DBB20193274B834602FB05330C2290
:104BD800C24600270093244B02FB05330293019A37
:104BE800FBB2934202D305B0BDE8F08F0C2C26D15E
:104BF800029BDE5D0AF108031FFA83F9330628D504
:104C08001A4B514658461A88FDF722FA184B0AF1F2
:104C180001015A881FFA81FA76005245F6B2E2D9A4
:104C2800AAEB0802A24219D11B880BF101001FFA56
:104C380080FB5B45D7D9C146CA460137CFE7102C60
:104C480003D10C4B03EB0513D3E7182CCBD1009BF6
:104C5800CFE7039B002BD9D1074BD2E7D145CDD164
:104C6800EAE700BF92840008DE970008D40000201D
:104C7800C6000020EE910008000000202DE9F04F4A
:104C8800002581460E46A8464FF00A0A85B09DF8D1
:104C980038B003925F1E4FEA5B020292FCB2FF2C0F
:104CA80027D105B0BDE8F08F0AFB03F3013AD2B271
:104CB800FF2AF9D1039AB2FBF3F3B3FBFAF20AFB2A
:104CC8001233DAB2B8F1000F18D1AF4216DD9BB932
:104CD8005B462022CDF8008048463146FFF75EFF4C
:104CE800029B013C03EB090001351FFA80F9E4B28D
:104CF800D5E722460123D9E74FF0010800233032D7
:104D08000093D2B25B46E7E72DE9F04F1F46044611
:104D18000D464FF0000B85B002449DF8383096B22E
:104D28000F9A0F44BFB24FEA530902F1FF385FFAF6
:104D380080FA18F8012FA2F120015E2902D905B0E6
:104D4800BDE8F08FB44222BFED18ADB25446BD4263
:104D5800F5D220462946CDF800B04C440393A4B2BE
:104D6800FFF71CFF039BE4E710B590B01422002165
:104D780008A802F034FB1422002101A802F02FFB3E
:104D880002244FF480330122CDE90D43CDE90623F7
:104D98004FF4E01306A80A920F9301F0EBFC08B158
:104DA80072B6FEE70F23CDE901344FF48063039018
:104DB800CDE90430214601A801F09EFE08B172B683
:104DC800FEE710B010BD000030B50024102587B0F4
:104DD80001F0D2FA4FF4E01000F0A4FC4820FCF7F0
:104DE800E7FAFCF709FEFDF7E5FA324B1B6898472E
:104DF800FFF7BAFFCDE903442F4B05949A692F4872
:104E080042F020029A619A6902A902F020020092F7
:104E1800009A9A6942F004029A619B69029503F02C
:104E280004030193019B01F0C5FB4FF482732448EE
:104E3800DFF890C0C0E90244C0E900C34FF4007332
:104E4800C0E906350A23C0E90444C362C0E908443E
:104E5800846201F00DFF034608B172B6FEE74FF415
:104E6800E1321948194CC0E90233C0E900420C2468
:104E78000361C0E90543C36101F0BAFF034608B105
:104E880072B6FEE74FF4165211481249C0E90434CD
:104E9800C0E90012C0E90233C0E9063301F0A8FFF7
:104EA800044608B172B6FEE700F0D8FA204607B00B
:104EB80030BD00BF0C000020001002400008014077
:104EC8002001002000300140780100200038014016
:104ED800D80000200044004010B50F4B86B09A69F6
:104EE800012442F010029A619B690C4803F01003F8
:104EF8000193019B4FF4C053CDE90234032302A967
:104F08000593049401F056FB054BC3F8AC41C3F874
:104F1800B04106B010BD00BF0010024000100140B3
:104F28000000224238B50D4B00255A680C4C22F47B
:104F380070425A605A68042042F440525A60012371
:104F4800C4F8AC31C4F8B031FCF73CFA0420C4F81A
:104F5800AC51FCF737FAC4F8B05138BD0010014025
:104F6800000022420E4B10B55A680E4C22F47042D3
:104F78005A605A68042042F440525A600023C4F828
:104F8800B031C4F8AC31FCF71DFA01230420C4F891
:104F9800B031C4F8AC31BDE81040FCF713BA00BF1B
:104FA800001001400000224238B50125114B124C77
:104FB8005A68284622F470425A605A6842F40042FD
:104FC8005A60C4F8AC51FCF7FDF92846C4F8B05152
:104FD800FCF7F8F9FB23D4F82C0110B9C4F8B00198
:104FE80006E0013B13F0FF03F5D1FFF7BBFF0120FB
:104FF80038BD00BF001001400000224238B500252E
:105008000C4C0D4BC4F8B0515A68022022F470427F
:105018005A605A6842F440525A60C4F8AC51FCF7DE
:10502800D1F901230220C4F8B031FCF7CBF9C4F858
:10503800B05138BD000022420010014070B5002573
:1050480001260C4C0C4BC4F8B0515A68022022F4CB
:1050580070425A605A6842F440525A60C4F8AC61CF
:10506800FCF7B0F90220C4F8B061FCF7ABF9C4F85A
:10507800B05170BD0000224200100140F8B5144B39
:1050880004465A68082522F470425A605A68012773
:1050980042F440525A6000230E4EC6F8B031E3097C
:1050A800C6F8AC310220FCF78DF90220C6F8B071C1
:1050B800FCF788F900230220C6F8B031013DFCF75F
:1050C80081F9640015F0FF05E4B2E8D1F8BD00BF2E
:1050D80000100140000022422DE9F8430024064652
:1050E8000825A0460127144BDFF850905A6822F48F
:1050F80070425A605A6842F400425A600220C9F865
:10510800B081FCF75FF9C9F8B071D9F82C316400A7
:10511800E4B20BB10134E4B20120013DFCF752F9CD
:1051280015F0FF05EAD126B9FFF788FF2046BDE84C
:10513800F883FFF763FFF9E70010014000002242FF
:1051480070B505460C461646FCF72CF8B220FCF75D
:10515800CFF8FCF765F8280AFCF7CAF8FCF760F8FE
:10516800E8B2FCF7C5F8FCF75BF82644B44201D175
:10517800002508E014F8010BFCF7BAF8FCF750F822
:1051880005460028F2D0FCF72DF8284670BDF8B582
:10519800044615460E46FCF705F8B220FCF7A8F8B9
:1051A800FCF73EF8200AFCF7A3F8FCF739F8E0B260
:1051B800FCF79EF8FCF734F8FBF7F4FFB320FCF794
:1051C80097F80024FCF72CF86F1EAC4203D1BDE819
:1051D800F840FCF707B8381B18BF0120FCF7B4F8F3
:1051E80030550134F1E707B5003818BF0120C00178
:1051F8008DF8070001220DF107014FF45060FFF709
:105208009FFF03B05DF804FB70B5002586B0214B05
:105218008DF803509A69012442F010029A619B6943
:105228001D4E03F010030193019B0223CDE90235C3
:105238000323304602A9CDE9044301F0BBF94FF43A
:1052480000533046154E02A9CDE9023401F0B2F9F7
:10525800FBF784FF6420C6F8B451FCF7CDF8C6F814
:10526800B4416420FCF7C8F82046FFF7BCFF22468B
:105278000DF103014FF45060FFF789FF9DF80340DB
:105288000748214602F056F8B4F1800018BF012003
:1052980006B070BD0010024000100140000022421C
:1052A80040820008000000000A212DE9F043564C16
:1052B80085B023788DF807000133DBB2B3FBF1F238
:1052C80001FB1232D2B2237012B1092B00F28F8087
:1052D800002001220DF10701FFF759FF9DF8070093
:1052E80010F01F0052D04FF00008484D60F03F000A
:1052F800DFF81C9185F8200005F10C0695F82030A0
:1053080043FA08F3DA072CD539F81800042203A960
:10531800FFF73DFF95F83030BDF80E0013F0010F90
:1053280040BABDF80C7080B24AD0FBF7D5F832A36A
:10533800D3E90023FBF73AF9FBF7E8FB708178BA69
:1053480080B2FBF7C9F82EA3D3E90023FBF72EF9A7
:1053580002460B4600202F49FAF770FFFBF7D6FBF1
:10536800308008F10108B8F1050F06F10206C5D131
:10537800AB89EA8A13439BB20BB98DF80730002337
:10538800012023709DF80730DB0611D11F4B93F9DC
:10539800201093F820200029A9BF4FF6FF7102F0D2
:1053A8007F0222F01F029981A8BFD98283F82020AA
:1053B8002378F02B84BF0A23237005B0BDE8F0835F
:1053C800FBF78AF80CA3D3E90023FBF7EFF8FBF708
:1053D8009DFB308078BA80B2FBF77EF808A3D3E94A
:1053E8000023FBF7E3F8FBF791FB7081B9E7002096
:1053F800C8E700BFAFF300807B14AE47E17AD43F23
:10540800D881734694F6D23FC00100200C000020DA
:10541800529C00080000894013B547F6FF730A2123
:10542800D222009304461A230846FFF7BDFA1F222A
:10543800074B1A8010234CB1064A0A21CDE90032E5
:105448000846C822FFF760FC02B010BD024AF4E724
:10545800D40000207B820008858200082DE9F043F3
:105468004FF478498BB047F6FF70FCF77DFF384B57
:10547800384C1878FFF7D0FF374BA4F80090019309
:105488001823C822009332215A20FFF73DFC4FF61B
:10549800FF784FF6E07300271025A4F80080C82293
:1054A8000093642182231E20FFF77EFA02AE822336
:1054B800C82264211E202780FFF7F2FA30462749C8
:1054C80002F009F82B46A0226E213C200196009597
:1054D800FFF71AFCA4F80080B423C82296211E20E6
:1054E800CDF80090FFF760FAB423C82296211E2059
:1054F8002780FFF7D5FA3046194901F0ECFFA022C2
:105508002B4611463C20CDE90056FFF7FDFBC8228B
:105518001F231146A4F800801E200093E623FFF7FE
:1055280043FAC822E62311461E202780FFF7B8FA5F
:1055380030460C4901F0CFFF2B46A022D2213C2057
:10554800CDE90056FFF7E0FB0BB0BDE8F08300BFE4
:1055580002000020D40000209382000898820008EE
:10556800A7820008B78200080E4B82B09A6942F001
:1055780001029A619A6902F001020092009ADA69BE
:1055880042F08052DA61DB69074A03F080530193E5
:10559800019B536823F0E06343F00073536002B04B
:1055A800704700BF001002400000014010B50446DB
:1055B80086B01022002102A801F011FF2268164BC4
:1055C8009A4226D103F560439A69144842F48052FE
:1055D8009A619A6902A902F480520092009A9A6923
:1055E80042F004029A619B69A02203F0040301932C
:1055F800019B0223CDE902230323059300F0DAFF80
:10560800402100230548CDE9021302A9049300F0C4
:10561800D1FF06B010BD00BF0030014000080140B6
:10562800102210B5044688B00DEB0200002101F0ED
:10563800D6FE23682F4A934229D12F4B4FF400718D
:105648009A692E4842F480429A619A6902F480422B
:105658000092009A9A6942F004029A619B6903F0E9
:1056680004030193019B0223CDE90413032304A936
:10567800079300F09FFF4FF48060002304A9CDE951
:1056880004031E48069300F095FF08B010BD1C4A9D
:105698009342FAD1184B04A9DA69184842F4003247
:1056A800DA61DA69002402F400320292029A9A69F5
:1056B80042F004029A619B69042203F004030393F5
:1056C800039B0223CDE904230323079300F072FF11
:1056D800082304A90948CDE90434069400F06AFFB8
:1056E80022460121262000F07DFE262000F0AAFE99
:1056F800CBE700BF0038014000100240000801401D
:1057080000440040FEE7FEE7FEE7FEE7FEE77047DD
:105718007047704700F042BE014801F0FFBB00BF70
:10572800D800002001224FF4803310B590B0022435
:10573800CDE9062300220F9006A8CDE90D43089273
:1057480001F018F800B1FEE70F23CDE901344FF45A
:1057580080630390CDE90430214601A801F0CCF91B
:1057680000B1FEE710B010BD70B50D4614460E46E8
:10577800731B9C4201DC204670BDAFF3008006F825
:10578800010BF5E770B50D4614460E46731B9C4297
:1057980001DC204670BD16F8010BAFF30080F5E779
:1057A8004FF0FF3070474FF4005300204B607047B4
:1057B80001207047002070470B4A0346116810B556
:1057C80009B90A491160106809490A4C0344091BC0
:1057D8008B4206D901F052FE0C2303604FF0FF30D4
:1057E80010BD1360FCE700BFC401002018030020AF
:1057F80000C0002000040000704700002DE9F041BF
:10580800044608254FF0000801270B4E23064CBF1D
:10581800C6F88C71C6F88C810120C6F88081013DDC
:10582800FBF7D0FD640015F0FF05E4B2C6F88071FF
:10583800ECD1BDE8F08100BF000022422DE9F04123
:10584800002401271026A046174DC5F88041C5F849
:105858008C41C5F8B441FFF7D1FF0620FBF7B2FD34
:105868000120C5F88041FBF7ADFD3846C5F88071C9
:10587800FBF7A8FDC5F880410120C5F88081FBF73A
:10588800A1FDC5F88071D5F808316400A4B20BB148
:105898000134A4B2013E16F0FF06EDD10123200920
:1058A800C5F8B431BDE8F08100002242F0B585B0FA
:1058B80001AD06462F4605243046FFF7BFFF013CE1
:1058C800A4B227F8020B002CF6D10134A4B22A4660
:1058D8002346298832F8020F013381429BB284BFE4
:1058E80028801180052BF4D1042C05F10205ECD198
:1058F8000320BDF80820BDF806301344BDF80A207F
:1059080013449BB2B3FBF0F005B0F0BD70B5074B84
:10591800054618780C46FFF7C9FF054B0646187868
:10592800FFF7C4FF2E802080012070BD09000020F1
:105938000800002073B506460D4668460DF10201C1
:10594800FFF7E4FF10B9002002B070BD0DF10601A9
:1059580001A8FFF7DBFF0028F5D0BDF80420BDF84B
:1059680000108A4205D802F131038B4205DA8A42D7
:10597800E9D101F131039342E5DBBDF80630BDF80A
:105988000240A34205D803F13100A04205DAA34240
:10599800D9D104F131008342D5DC0A4423445210A2
:1059A8005B10328001202B80CEE7000038B52D4BEC
:1059B8002D4CD3F80431002B41D104F1160198B1D4
:1059C80004F10C00FFF7B6FF94F92030002B06DB3A
:1059D800C02384F82030A389A382E38AE38394F860
:1059E800200000F0800038BD04F10C00FFF7A2FF92
:1059F8000028E9D0A089FBF763F9616AFBF7B4F9DD
:105A08000546B4F92C00FBF75BF901462846FBF77D
:105A1800A3F8FBF71FFBA081E08AFBF751F9A16A05
:105A2800FBF7A2F90546B4F92E00FBF749F9014640
:105A38002846FBF791F8FBF70DFBE082C4E794F9E1
:105A4800202094F82030002AA1BF0023E3834FF6DA
:105A5800FF73A381ADBF054B03F07F0384F82030AB
:105A68006361BCE7000022420C0000200000FFFF39
:105A78002DE9F04104460D461A4B04F101081A803D
:105A880000F10D020C380B4692B280B2FEF7BEFF51
:105A98006F1C05F10D03A5F10C0122469BB22046AF
:105AA8001FFA88F8BFB289B2FEF7B0FF661E394602
:105AB8004046FCF7B1FAB6B239466F1E3046BFB25F
:105AC800FCF7AAFA39464046FCF7A6FA39463046AA
